{
  "contractName": "MemoryToken",
  "abi": [
    {
      "inputs": [],
      "stateMutability": "nonpayable",
      "type": "constructor"
    },
    {
      "anonymous": false,
      "inputs": [
        {
          "indexed": true,
          "internalType": "address",
          "name": "owner",
          "type": "address"
        },
        {
          "indexed": true,
          "internalType": "address",
          "name": "approved",
          "type": "address"
        },
        {
          "indexed": true,
          "internalType": "uint256",
          "name": "tokenId",
          "type": "uint256"
        }
      ],
      "name": "Approval",
      "type": "event"
    },
    {
      "anonymous": false,
      "inputs": [
        {
          "indexed": true,
          "internalType": "address",
          "name": "owner",
          "type": "address"
        },
        {
          "indexed": true,
          "internalType": "address",
          "name": "operator",
          "type": "address"
        },
        {
          "indexed": false,
          "internalType": "bool",
          "name": "approved",
          "type": "bool"
        }
      ],
      "name": "ApprovalForAll",
      "type": "event"
    },
    {
      "anonymous": false,
      "inputs": [
        {
          "indexed": false,
          "internalType": "uint256",
          "name": "tokenId",
          "type": "uint256"
        }
      ],
      "name": "Minted",
      "type": "event"
    },
    {
      "anonymous": false,
      "inputs": [
        {
          "indexed": true,
          "internalType": "address",
          "name": "previousOwner",
          "type": "address"
        },
        {
          "indexed": true,
          "internalType": "address",
          "name": "newOwner",
          "type": "address"
        }
      ],
      "name": "OwnershipTransferred",
      "type": "event"
    },
    {
      "anonymous": false,
      "inputs": [
        {
          "indexed": true,
          "internalType": "address",
          "name": "from",
          "type": "address"
        },
        {
          "indexed": true,
          "internalType": "address",
          "name": "to",
          "type": "address"
        },
        {
          "indexed": true,
          "internalType": "uint256",
          "name": "tokenId",
          "type": "uint256"
        }
      ],
      "name": "Transfer",
      "type": "event"
    },
    {
      "inputs": [
        {
          "internalType": "address",
          "name": "to",
          "type": "address"
        },
        {
          "internalType": "uint256",
          "name": "tokenId",
          "type": "uint256"
        }
      ],
      "name": "approve",
      "outputs": [],
      "stateMutability": "nonpayable",
      "type": "function"
    },
    {
      "inputs": [
        {
          "internalType": "address",
          "name": "owner",
          "type": "address"
        }
      ],
      "name": "balanceOf",
      "outputs": [
        {
          "internalType": "uint256",
          "name": "",
          "type": "uint256"
        }
      ],
      "stateMutability": "view",
      "type": "function",
      "constant": true
    },
    {
      "inputs": [
        {
          "internalType": "uint256",
          "name": "tokenId",
          "type": "uint256"
        }
      ],
      "name": "getApproved",
      "outputs": [
        {
          "internalType": "address",
          "name": "",
          "type": "address"
        }
      ],
      "stateMutability": "view",
      "type": "function",
      "constant": true
    },
    {
      "inputs": [
        {
          "internalType": "address",
          "name": "owner",
          "type": "address"
        },
        {
          "internalType": "address",
          "name": "operator",
          "type": "address"
        }
      ],
      "name": "isApprovedForAll",
      "outputs": [
        {
          "internalType": "bool",
          "name": "",
          "type": "bool"
        }
      ],
      "stateMutability": "view",
      "type": "function",
      "constant": true
    },
    {
      "inputs": [],
      "name": "name",
      "outputs": [
        {
          "internalType": "string",
          "name": "",
          "type": "string"
        }
      ],
      "stateMutability": "view",
      "type": "function",
      "constant": true
    },
    {
      "inputs": [],
      "name": "owner",
      "outputs": [
        {
          "internalType": "address",
          "name": "",
          "type": "address"
        }
      ],
      "stateMutability": "view",
      "type": "function",
      "constant": true
    },
    {
      "inputs": [
        {
          "internalType": "uint256",
          "name": "tokenId",
          "type": "uint256"
        }
      ],
      "name": "ownerOf",
      "outputs": [
        {
          "internalType": "address",
          "name": "",
          "type": "address"
        }
      ],
      "stateMutability": "view",
      "type": "function",
      "constant": true
    },
    {
      "inputs": [],
      "name": "renounceOwnership",
      "outputs": [],
      "stateMutability": "nonpayable",
      "type": "function"
    },
    {
      "inputs": [
        {
          "internalType": "address",
          "name": "from",
          "type": "address"
        },
        {
          "internalType": "address",
          "name": "to",
          "type": "address"
        },
        {
          "internalType": "uint256",
          "name": "tokenId",
          "type": "uint256"
        }
      ],
      "name": "safeTransferFrom",
      "outputs": [],
      "stateMutability": "nonpayable",
      "type": "function"
    },
    {
      "inputs": [
        {
          "internalType": "address",
          "name": "from",
          "type": "address"
        },
        {
          "internalType": "address",
          "name": "to",
          "type": "address"
        },
        {
          "internalType": "uint256",
          "name": "tokenId",
          "type": "uint256"
        },
        {
          "internalType": "bytes",
          "name": "_data",
          "type": "bytes"
        }
      ],
      "name": "safeTransferFrom",
      "outputs": [],
      "stateMutability": "nonpayable",
      "type": "function"
    },
    {
      "inputs": [
        {
          "internalType": "address",
          "name": "operator",
          "type": "address"
        },
        {
          "internalType": "bool",
          "name": "approved",
          "type": "bool"
        }
      ],
      "name": "setApprovalForAll",
      "outputs": [],
      "stateMutability": "nonpayable",
      "type": "function"
    },
    {
      "inputs": [],
      "name": "symbol",
      "outputs": [
        {
          "internalType": "string",
          "name": "",
          "type": "string"
        }
      ],
      "stateMutability": "view",
      "type": "function",
      "constant": true
    },
    {
      "inputs": [
        {
          "internalType": "uint256",
          "name": "index",
          "type": "uint256"
        }
      ],
      "name": "tokenByIndex",
      "outputs": [
        {
          "internalType": "uint256",
          "name": "",
          "type": "uint256"
        }
      ],
      "stateMutability": "view",
      "type": "function",
      "constant": true
    },
    {
      "inputs": [
        {
          "internalType": "address",
          "name": "owner",
          "type": "address"
        },
        {
          "internalType": "uint256",
          "name": "index",
          "type": "uint256"
        }
      ],
      "name": "tokenOfOwnerByIndex",
      "outputs": [
        {
          "internalType": "uint256",
          "name": "",
          "type": "uint256"
        }
      ],
      "stateMutability": "view",
      "type": "function",
      "constant": true
    },
    {
      "inputs": [],
      "name": "totalSupply",
      "outputs": [
        {
          "internalType": "uint256",
          "name": "",
          "type": "uint256"
        }
      ],
      "stateMutability": "view",
      "type": "function",
      "constant": true
    },
    {
      "inputs": [
        {
          "internalType": "address",
          "name": "from",
          "type": "address"
        },
        {
          "internalType": "address",
          "name": "to",
          "type": "address"
        },
        {
          "internalType": "uint256",
          "name": "tokenId",
          "type": "uint256"
        }
      ],
      "name": "transferFrom",
      "outputs": [],
      "stateMutability": "nonpayable",
      "type": "function"
    },
    {
      "inputs": [
        {
          "internalType": "address",
          "name": "newOwner",
          "type": "address"
        }
      ],
      "name": "transferOwnership",
      "outputs": [],
      "stateMutability": "nonpayable",
      "type": "function"
    },
    {
      "inputs": [
        {
          "internalType": "uint256",
          "name": "tokenId",
          "type": "uint256"
        }
      ],
      "name": "tokenURI",
      "outputs": [
        {
          "internalType": "string",
          "name": "",
          "type": "string"
        }
      ],
      "stateMutability": "view",
      "type": "function",
      "constant": true
    },
    {
      "inputs": [
        {
          "internalType": "bytes4",
          "name": "interfaceId",
          "type": "bytes4"
        }
      ],
      "name": "supportsInterface",
      "outputs": [
        {
          "internalType": "bool",
          "name": "",
          "type": "bool"
        }
      ],
      "stateMutability": "view",
      "type": "function",
      "constant": true
    },
    {
      "inputs": [
        {
          "internalType": "address",
          "name": "_to",
          "type": "address"
        },
        {
          "internalType": "string",
          "name": "_tokenURI",
          "type": "string"
        }
      ],
      "name": "mint",
      "outputs": [
        {
          "internalType": "bool",
          "name": "",
          "type": "bool"
        }
      ],
      "stateMutability": "nonpayable",
      "type": "function"
    }
  ],
  "bytecode": "0x60806040523480156200001157600080fd5b506040518060400160405280600c81526020017f4d656d6f727920546f6b656e00000000000000000000000000000000000000008152506040518060400160405280600681526020017f4d454d4f52590000000000000000000000000000000000000000000000000000815250816000908051906020019062000096929190620001a6565b508060019080519060200190620000af929190620001a6565b505050620000d2620000c6620000d860201b60201c565b620000e060201b60201c565b620002bb565b600033905090565b6000600b60009054906101000a900473ffffffffffffffffffffffffffffffffffffffff16905081600b60006101000a81548173ffffffffffffffffffffffffffffffffffffffff021916908373ffffffffffffffffffffffffffffffffffffffff1602179055508173ffffffffffffffffffffffffffffffffffffffff168173ffffffffffffffffffffffffffffffffffffffff167f8be0079c531659141344cd1fd0a4f28419497f9722a3daafe3b4186f6b6457e060405160405180910390a35050565b828054620001b49062000256565b90600052602060002090601f016020900481019282620001d8576000855562000224565b82601f10620001f357805160ff191683800117855562000224565b8280016001018555821562000224579182015b828111156200022357825182559160200191906001019062000206565b5b50905062000233919062000237565b5090565b5b808211156200025257600081600090555060010162000238565b5090565b600060028204905060018216806200026f57607f821691505b602082108114156200028657620002856200028c565b5b50919050565b7f4e487b7100000000000000000000000000000000000000000000000000000000600052602260045260246000fd5b61371d80620002cb6000396000f3fe608060405234801561001057600080fd5b506004361061012c5760003560e01c806370a08231116100ad578063b88d4fde11610071578063b88d4fde14610343578063c87b56dd1461035f578063d0def5211461038f578063e985e9c5146103bf578063f2fde38b146103ef5761012c565b806370a08231146102b1578063715018a6146102e15780638da5cb5b146102eb57806395d89b4114610309578063a22cb465146103275761012c565b806323b872dd116100f457806323b872dd146101e95780632f745c591461020557806342842e0e146102355780634f6ccce7146102515780636352211e146102815761012c565b806301ffc9a71461013157806306fdde0314610161578063081812fc1461017f578063095ea7b3146101af57806318160ddd146101cb575b600080fd5b61014b600480360381019061014691906126bf565b61040b565b6040516101589190612ff5565b60405180910390f35b61016961041d565b6040516101769190613010565b60405180910390f35b61019960048036038101906101949190612711565b6104af565b6040516101a69190612f8e565b60405180910390f35b6101c960048036038101906101c49190612683565b610534565b005b6101d361064c565b6040516101e091906132b2565b60405180910390f35b61020360048036038101906101fe9190612529565b610659565b005b61021f600480360381019061021a9190612683565b6106b9565b60405161022c91906132b2565b60405180910390f35b61024f600480360381019061024a9190612529565b61075e565b005b61026b60048036038101906102669190612711565b61077e565b60405161027891906132b2565b60405180910390f35b61029b60048036038101906102969190612711565b610815565b6040516102a89190612f8e565b60405180910390f35b6102cb60048036038101906102c691906124c4565b6108c7565b6040516102d891906132b2565b60405180910390f35b6102e961097f565b005b6102f3610a07565b6040516103009190612f8e565b60405180910390f35b610311610a31565b60405161031e9190613010565b60405180910390f35b610341600480360381019061033c91906125f3565b610ac3565b005b61035d60048036038101906103589190612578565b610ad9565b005b61037960048036038101906103749190612711565b610b3b565b6040516103869190613010565b60405180910390f35b6103a960048036038101906103a4919061262f565b610b4d565b6040516103b69190612ff5565b60405180910390f35b6103d960048036038101906103d491906124ed565b610c40565b6040516103e69190612ff5565b60405180910390f35b610409600480360381019061040491906124c4565b610cd4565b005b600061041682610dcc565b9050919050565b60606000805461042c90613512565b80601f016020809104026020016040519081016040528092919081815260200182805461045890613512565b80156104a55780601f1061047a576101008083540402835291602001916104a5565b820191906000526020600020905b81548152906001019060200180831161048857829003601f168201915b5050505050905090565b60006104ba82610e46565b6104f9576040517f08c379a00000000000000000000000000000000000000000000000000000000081526004016104f0906131d2565b60405180910390fd5b6004600083815260200190815260200160002060009054906101000a900473ffffffffffffffffffffffffffffffffffffffff169050919050565b600061053f82610815565b90508073ffffffffffffffffffffffffffffffffffffffff168373ffffffffffffffffffffffffffffffffffffffff1614156105b0576040517f08c379a00000000000000000000000000000000000000000000000000000000081526004016105a790613252565b60405180910390fd5b8073ffffffffffffffffffffffffffffffffffffffff166105cf610eb2565b73ffffffffffffffffffffffffffffffffffffffff1614806105fe57506105fd816105f8610eb2565b610c40565b5b61063d576040517f08c379a000000000000000000000000000000000000000000000000000000000815260040161063490613112565b60405180910390fd5b6106478383610eba565b505050565b6000600880549050905090565b61066a610664610eb2565b82610f73565b6106a9576040517f08c379a00000000000000000000000000000000000000000000000000000000081526004016106a090613272565b60405180910390fd5b6106b4838383611051565b505050565b60006106c4836108c7565b8210610705576040517f08c379a00000000000000000000000000000000000000000000000000000000081526004016106fc90613032565b60405180910390fd5b600660008473ffffffffffffffffffffffffffffffffffffffff1673ffffffffffffffffffffffffffffffffffffffff168152602001908152602001600020600083815260200190815260200160002054905092915050565b61077983838360405180602001604052806000815250610ad9565b505050565b600061078861064c565b82106107c9576040517f08c379a00000000000000000000000000000000000000000000000000000000081526004016107c090613292565b60405180910390fd5b60088281548110610803577f4e487b7100000000000000000000000000000000000000000000000000000000600052603260045260246000fd5b90600052602060002001549050919050565b6000806002600084815260200190815260200160002060009054906101000a900473ffffffffffffffffffffffffffffffffffffffff169050600073ffffffffffffffffffffffffffffffffffffffff168173ffffffffffffffffffffffffffffffffffffffff1614156108be576040517f08c379a00000000000000000000000000000000000000000000000000000000081526004016108b590613152565b60405180910390fd5b80915050919050565b60008073ffffffffffffffffffffffffffffffffffffffff168273ffffffffffffffffffffffffffffffffffffffff161415610938576040517f08c379a000000000000000000000000000000000000000000000000000000000815260040161092f90613132565b60405180910390fd5b600360008373ffffffffffffffffffffffffffffffffffffffff1673ffffffffffffffffffffffffffffffffffffffff168152602001908152602001600020549050919050565b610987610eb2565b73ffffffffffffffffffffffffffffffffffffffff166109a5610a07565b73ffffffffffffffffffffffffffffffffffffffff16146109fb576040517f08c379a00000000000000000000000000000000000000000000000000000000081526004016109f2906131f2565b60405180910390fd5b610a0560006112ad565b565b6000600b60009054906101000a900473ffffffffffffffffffffffffffffffffffffffff16905090565b606060018054610a4090613512565b80601f0160208091040260200160405190810160405280929190818152602001828054610a6c90613512565b8015610ab95780601f10610a8e57610100808354040283529160200191610ab9565b820191906000526020600020905b815481529060010190602001808311610a9c57829003601f168201915b5050505050905090565b610ad5610ace610eb2565b8383611373565b5050565b610aea610ae4610eb2565b83610f73565b610b29576040517f08c379a0000000000000000000000000000000000000000000000000000000008152600401610b2090613272565b60405180910390fd5b610b35848484846114e0565b50505050565b6060610b468261153c565b9050919050565b6000610b57610eb2565b73ffffffffffffffffffffffffffffffffffffffff16610b75610a07565b73ffffffffffffffffffffffffffffffffffffffff1614610bcb576040517f08c379a0000000000000000000000000000000000000000000000000000000008152600401610bc2906131f2565b60405180910390fd5b6000610be86001610bda61064c565b61168e90919063ffffffff16565b9050610bf484826116a4565b610bfe8184611872565b7f176b02bb2d12439ff7a20b59f402cca16c76f50508b13ef3166a600eb719354a81604051610c2d91906132b2565b60405180910390a1600191505092915050565b6000600560008473ffffffffffffffffffffffffffffffffffffffff1673ffffffffffffffffffffffffffffffffffffffff16815260200190815260200160002060008373ffffffffffffffffffffffffffffffffffffffff1673ffffffffffffffffffffffffffffffffffffffff16815260200190815260200160002060009054906101000a900460ff16905092915050565b610cdc610eb2565b73ffffffffffffffffffffffffffffffffffffffff16610cfa610a07565b73ffffffffffffffffffffffffffffffffffffffff1614610d50576040517f08c379a0000000000000000000000000000000000000000000000000000000008152600401610d47906131f2565b60405180910390fd5b600073ffffffffffffffffffffffffffffffffffffffff168173ffffffffffffffffffffffffffffffffffffffff161415610dc0576040517f08c379a0000000000000000000000000000000000000000000000000000000008152600401610db790613072565b60405180910390fd5b610dc9816112ad565b50565b60007f780e9d63000000000000000000000000000000000000000000000000000000007bffffffffffffffffffffffffffffffffffffffffffffffffffffffff1916827bffffffffffffffffffffffffffffffffffffffffffffffffffffffff19161480610e3f5750610e3e826118e6565b5b9050919050565b60008073ffffffffffffffffffffffffffffffffffffffff166002600084815260200190815260200160002060009054906101000a900473ffffffffffffffffffffffffffffffffffffffff1673ffffffffffffffffffffffffffffffffffffffff1614159050919050565b600033905090565b816004600083815260200190815260200160002060006101000a81548173ffffffffffffffffffffffffffffffffffffffff021916908373ffffffffffffffffffffffffffffffffffffffff160217905550808273ffffffffffffffffffffffffffffffffffffffff16610f2d83610815565b73ffffffffffffffffffffffffffffffffffffffff167f8c5be1e5ebec7d5bd14f71427d1e84f3dd0314c0f7b2291e5b200ac8c7c3b92560405160405180910390a45050565b6000610f7e82610e46565b610fbd576040517f08c379a0000000000000000000000000000000000000000000000000000000008152600401610fb4906130f2565b60405180910390fd5b6000610fc883610815565b90508073ffffffffffffffffffffffffffffffffffffffff168473ffffffffffffffffffffffffffffffffffffffff16148061103757508373ffffffffffffffffffffffffffffffffffffffff1661101f846104af565b73ffffffffffffffffffffffffffffffffffffffff16145b8061104857506110478185610c40565b5b91505092915050565b8273ffffffffffffffffffffffffffffffffffffffff1661107182610815565b73ffffffffffffffffffffffffffffffffffffffff16146110c7576040517f08c379a00000000000000000000000000000000000000000000000000000000081526004016110be90613212565b60405180910390fd5b600073ffffffffffffffffffffffffffffffffffffffff168273ffffffffffffffffffffffffffffffffffffffff161415611137576040517f08c379a000000000000000000000000000000000000000000000000000000000815260040161112e906130b2565b60405180910390fd5b6111428383836119c8565b61114d600082610eba565b6001600360008573ffffffffffffffffffffffffffffffffffffffff1673ffffffffffffffffffffffffffffffffffffffff168152602001908152602001600020600082825461119d9190613428565b925050819055506001600360008473ffffffffffffffffffffffffffffffffffffffff1673ffffffffffffffffffffffffffffffffffffffff16815260200190815260200160002060008282546111f491906133a1565b92505081905550816002600083815260200190815260200160002060006101000a81548173ffffffffffffffffffffffffffffffffffffffff021916908373ffffffffffffffffffffffffffffffffffffffff160217905550808273ffffffffffffffffffffffffffffffffffffffff168473ffffffffffffffffffffffffffffffffffffffff167fddf252ad1be2c89b69c2b068fc378daa952ba7f163c4a11628f55a4df523b3ef60405160405180910390a4505050565b6000600b60009054906101000a900473ffffffffffffffffffffffffffffffffffffffff16905081600b60006101000a81548173ffffffffffffffffffffffffffffffffffffffff021916908373ffffffffffffffffffffffffffffffffffffffff1602179055508173ffffffffffffffffffffffffffffffffffffffff168173ffffffffffffffffffffffffffffffffffffffff167f8be0079c531659141344cd1fd0a4f28419497f9722a3daafe3b4186f6b6457e060405160405180910390a35050565b8173ffffffffffffffffffffffffffffffffffffffff168373ffffffffffffffffffffffffffffffffffffffff1614156113e2576040517f08c379a00000000000000000000000000000000000000000000000000000000081526004016113d9906130d2565b60405180910390fd5b80600560008573ffffffffffffffffffffffffffffffffffffffff1673ffffffffffffffffffffffffffffffffffffffff16815260200190815260200160002060008473ffffffffffffffffffffffffffffffffffffffff1673ffffffffffffffffffffffffffffffffffffffff16815260200190815260200160002060006101000a81548160ff0219169083151502179055508173ffffffffffffffffffffffffffffffffffffffff168373ffffffffffffffffffffffffffffffffffffffff167f17307eab39ab6107e8899845ad3d59bd9653f200f220920489ca2b5937696c31836040516114d39190612ff5565b60405180910390a3505050565b6114eb848484611051565b6114f7848484846119d8565b611536576040517f08c379a000000000000000000000000000000000000000000000000000000000815260040161152d90613052565b60405180910390fd5b50505050565b606061154782610e46565b611586576040517f08c379a000000000000000000000000000000000000000000000000000000000815260040161157d906131b2565b60405180910390fd5b6000600a600084815260200190815260200160002080546115a690613512565b80601f01602080910402602001604051908101604052809291908181526020018280546115d290613512565b801561161f5780601f106115f45761010080835404028352916020019161161f565b820191906000526020600020905b81548152906001019060200180831161160257829003601f168201915b505050505090506000611630611b6f565b9050600081511415611646578192505050611689565b60008251111561167b578082604051602001611663929190612f6a565b60405160208183030381529060405292505050611689565b61168484611b86565b925050505b919050565b6000818361169c91906133a1565b905092915050565b600073ffffffffffffffffffffffffffffffffffffffff168273ffffffffffffffffffffffffffffffffffffffff161415611714576040517f08c379a000000000000000000000000000000000000000000000000000000000815260040161170b90613192565b60405180910390fd5b61171d81610e46565b1561175d576040517f08c379a000000000000000000000000000000000000000000000000000000000815260040161175490613092565b60405180910390fd5b611769600083836119c8565b6001600360008473ffffffffffffffffffffffffffffffffffffffff1673ffffffffffffffffffffffffffffffffffffffff16815260200190815260200160002060008282546117b991906133a1565b92505081905550816002600083815260200190815260200160002060006101000a81548173ffffffffffffffffffffffffffffffffffffffff021916908373ffffffffffffffffffffffffffffffffffffffff160217905550808273ffffffffffffffffffffffffffffffffffffffff16600073ffffffffffffffffffffffffffffffffffffffff167fddf252ad1be2c89b69c2b068fc378daa952ba7f163c4a11628f55a4df523b3ef60405160405180910390a45050565b61187b82610e46565b6118ba576040517f08c379a00000000000000000000000000000000000000000000000000000000081526004016118b190613172565b60405180910390fd5b80600a600084815260200190815260200160002090805190602001906118e19291906122e8565b505050565b60007f80ac58cd000000000000000000000000000000000000000000000000000000007bffffffffffffffffffffffffffffffffffffffffffffffffffffffff1916827bffffffffffffffffffffffffffffffffffffffffffffffffffffffff191614806119b157507f5b5e139f000000000000000000000000000000000000000000000000000000007bffffffffffffffffffffffffffffffffffffffffffffffffffffffff1916827bffffffffffffffffffffffffffffffffffffffffffffffffffffffff1916145b806119c157506119c082611c2d565b5b9050919050565b6119d3838383611c97565b505050565b60006119f98473ffffffffffffffffffffffffffffffffffffffff16611dab565b15611b62578373ffffffffffffffffffffffffffffffffffffffff1663150b7a02611a22610eb2565b8786866040518563ffffffff1660e01b8152600401611a449493929190612fa9565b602060405180830381600087803b158015611a5e57600080fd5b505af1925050508015611a8f57506040513d601f19601f82011682018060405250810190611a8c91906126e8565b60015b611b12573d8060008114611abf576040519150601f19603f3d011682016040523d82523d6000602084013e611ac4565b606091505b50600081511415611b0a576040517f08c379a0000000000000000000000000000000000000000000000000000000008152600401611b0190613052565b60405180910390fd5b805181602001fd5b63150b7a0260e01b7bffffffffffffffffffffffffffffffffffffffffffffffffffffffff1916817bffffffffffffffffffffffffffffffffffffffffffffffffffffffff191614915050611b67565b600190505b949350505050565b606060405180602001604052806000815250905090565b6060611b9182610e46565b611bd0576040517f08c379a0000000000000000000000000000000000000000000000000000000008152600401611bc790613232565b60405180910390fd5b6000611bda611b6f565b90506000815111611bfa5760405180602001604052806000815250611c25565b80611c0484611dbe565b604051602001611c15929190612f6a565b6040516020818303038152906040525b915050919050565b60007f01ffc9a7000000000000000000000000000000000000000000000000000000007bffffffffffffffffffffffffffffffffffffffffffffffffffffffff1916827bffffffffffffffffffffffffffffffffffffffffffffffffffffffff1916149050919050565b611ca2838383611f6b565b600073ffffffffffffffffffffffffffffffffffffffff168373ffffffffffffffffffffffffffffffffffffffff161415611ce557611ce081611f70565b611d24565b8173ffffffffffffffffffffffffffffffffffffffff168373ffffffffffffffffffffffffffffffffffffffff1614611d2357611d228382611fb9565b5b5b600073ffffffffffffffffffffffffffffffffffffffff168273ffffffffffffffffffffffffffffffffffffffff161415611d6757611d6281612126565b611da6565b8273ffffffffffffffffffffffffffffffffffffffff168273ffffffffffffffffffffffffffffffffffffffff1614611da557611da48282612269565b5b5b505050565b600080823b905060008111915050919050565b60606000821415611e06576040518060400160405280600181526020017f30000000000000000000000000000000000000000000000000000000000000008152509050611f66565b600082905060005b60008214611e38578080611e2190613544565b915050600a82611e3191906133f7565b9150611e0e565b60008167ffffffffffffffff811115611e7a577f4e487b7100000000000000000000000000000000000000000000000000000000600052604160045260246000fd5b6040519080825280601f01601f191660200182016040528015611eac5781602001600182028036833780820191505090505b5090505b60008514611f5f57600182611ec59190613428565b9150600a85611ed4919061358d565b6030611ee091906133a1565b60f81b818381518110611f1c577f4e487b7100000000000000000000000000000000000000000000000000000000600052603260045260246000fd5b60200101907effffffffffffffffffffffffffffffffffffffffffffffffffffffffffffff1916908160001a905350600a85611f5891906133f7565b9450611eb0565b8093505050505b919050565b505050565b6008805490506009600083815260200190815260200160002081905550600881908060018154018082558091505060019003906000526020600020016000909190919091505550565b60006001611fc6846108c7565b611fd09190613428565b90506000600760008481526020019081526020016000205490508181146120b5576000600660008673ffffffffffffffffffffffffffffffffffffffff1673ffffffffffffffffffffffffffffffffffffffff168152602001908152602001600020600084815260200190815260200160002054905080600660008773ffffffffffffffffffffffffffffffffffffffff1673ffffffffffffffffffffffffffffffffffffffff168152602001908152602001600020600084815260200190815260200160002081905550816007600083815260200190815260200160002081905550505b6007600084815260200190815260200160002060009055600660008573ffffffffffffffffffffffffffffffffffffffff1673ffffffffffffffffffffffffffffffffffffffff16815260200190815260200160002060008381526020019081526020016000206000905550505050565b6000600160088054905061213a9190613428565b9050600060096000848152602001908152602001600020549050600060088381548110612190577f4e487b7100000000000000000000000000000000000000000000000000000000600052603260045260246000fd5b9060005260206000200154905080600883815481106121d8577f4e487b7100000000000000000000000000000000000000000000000000000000600052603260045260246000fd5b90600052602060002001819055508160096000838152602001908152602001600020819055506009600085815260200190815260200160002060009055600880548061224d577f4e487b7100000000000000000000000000000000000000000000000000000000600052603160045260246000fd5b6001900381819060005260206000200160009055905550505050565b6000612274836108c7565b905081600660008573ffffffffffffffffffffffffffffffffffffffff1673ffffffffffffffffffffffffffffffffffffffff168152602001908152602001600020600083815260200190815260200160002081905550806007600084815260200190815260200160002081905550505050565b8280546122f490613512565b90600052602060002090601f016020900481019282612316576000855561235d565b82601f1061232f57805160ff191683800117855561235d565b8280016001018555821561235d579182015b8281111561235c578251825591602001919060010190612341565b5b50905061236a919061236e565b5090565b5b8082111561238757600081600090555060010161236f565b5090565b600061239e612399846132fe565b6132cd565b9050828152602081018484840111156123b657600080fd5b6123c18482856134d0565b509392505050565b60006123dc6123d78461332e565b6132cd565b9050828152602081018484840111156123f457600080fd5b6123ff8482856134d0565b509392505050565b6000813590506124168161368b565b92915050565b60008135905061242b816136a2565b92915050565b600081359050612440816136b9565b92915050565b600081519050612455816136b9565b92915050565b600082601f83011261246c57600080fd5b813561247c84826020860161238b565b91505092915050565b600082601f83011261249657600080fd5b81356124a68482602086016123c9565b91505092915050565b6000813590506124be816136d0565b92915050565b6000602082840312156124d657600080fd5b60006124e484828501612407565b91505092915050565b6000806040838503121561250057600080fd5b600061250e85828601612407565b925050602061251f85828601612407565b9150509250929050565b60008060006060848603121561253e57600080fd5b600061254c86828701612407565b935050602061255d86828701612407565b925050604061256e868287016124af565b9150509250925092565b6000806000806080858703121561258e57600080fd5b600061259c87828801612407565b94505060206125ad87828801612407565b93505060406125be878288016124af565b925050606085013567ffffffffffffffff8111156125db57600080fd5b6125e78782880161245b565b91505092959194509250565b6000806040838503121561260657600080fd5b600061261485828601612407565b92505060206126258582860161241c565b9150509250929050565b6000806040838503121561264257600080fd5b600061265085828601612407565b925050602083013567ffffffffffffffff81111561266d57600080fd5b61267985828601612485565b9150509250929050565b6000806040838503121561269657600080fd5b60006126a485828601612407565b92505060206126b5858286016124af565b9150509250929050565b6000602082840312156126d157600080fd5b60006126df84828501612431565b91505092915050565b6000602082840312156126fa57600080fd5b600061270884828501612446565b91505092915050565b60006020828403121561272357600080fd5b6000612731848285016124af565b91505092915050565b6127438161345c565b82525050565b6127528161346e565b82525050565b60006127638261335e565b61276d8185613374565b935061277d8185602086016134df565b6127868161367a565b840191505092915050565b600061279c82613369565b6127a68185613385565b93506127b68185602086016134df565b6127bf8161367a565b840191505092915050565b60006127d582613369565b6127df8185613396565b93506127ef8185602086016134df565b80840191505092915050565b6000612808602b83613385565b91507f455243373231456e756d657261626c653a206f776e657220696e646578206f7560008301527f74206f6620626f756e64730000000000000000000000000000000000000000006020830152604082019050919050565b600061286e603283613385565b91507f4552433732313a207472616e7366657220746f206e6f6e20455243373231526560008301527f63656976657220696d706c656d656e74657200000000000000000000000000006020830152604082019050919050565b60006128d4602683613385565b91507f4f776e61626c653a206e6577206f776e657220697320746865207a65726f206160008301527f64647265737300000000000000000000000000000000000000000000000000006020830152604082019050919050565b600061293a601c83613385565b91507f4552433732313a20746f6b656e20616c7265616479206d696e746564000000006000830152602082019050919050565b600061297a602483613385565b91507f4552433732313a207472616e7366657220746f20746865207a65726f2061646460008301527f72657373000000000000000000000000000000000000000000000000000000006020830152604082019050919050565b60006129e0601983613385565b91507f4552433732313a20617070726f766520746f2063616c6c6572000000000000006000830152602082019050919050565b6000612a20602c83613385565b91507f4552433732313a206f70657261746f7220717565727920666f72206e6f6e657860008301527f697374656e7420746f6b656e00000000000000000000000000000000000000006020830152604082019050919050565b6000612a86603883613385565b91507f4552433732313a20617070726f76652063616c6c6572206973206e6f74206f7760008301527f6e6572206e6f7220617070726f76656420666f7220616c6c00000000000000006020830152604082019050919050565b6000612aec602a83613385565b91507f4552433732313a2062616c616e636520717565727920666f7220746865207a6560008301527f726f2061646472657373000000000000000000000000000000000000000000006020830152604082019050919050565b6000612b52602983613385565b91507f4552433732313a206f776e657220717565727920666f72206e6f6e657869737460008301527f656e7420746f6b656e00000000000000000000000000000000000000000000006020830152604082019050919050565b6000612bb8602e83613385565b91507f45524337323155524953746f726167653a2055524920736574206f66206e6f6e60008301527f6578697374656e7420746f6b656e0000000000000000000000000000000000006020830152604082019050919050565b6000612c1e602083613385565b91507f4552433732313a206d696e7420746f20746865207a65726f20616464726573736000830152602082019050919050565b6000612c5e603183613385565b91507f45524337323155524953746f726167653a2055524920717565727920666f722060008301527f6e6f6e6578697374656e7420746f6b656e0000000000000000000000000000006020830152604082019050919050565b6000612cc4602c83613385565b91507f4552433732313a20617070726f76656420717565727920666f72206e6f6e657860008301527f697374656e7420746f6b656e00000000000000000000000000000000000000006020830152604082019050919050565b6000612d2a602083613385565b91507f4f776e61626c653a2063616c6c6572206973206e6f7420746865206f776e65726000830152602082019050919050565b6000612d6a602983613385565b91507f4552433732313a207472616e73666572206f6620746f6b656e2074686174206960008301527f73206e6f74206f776e00000000000000000000000000000000000000000000006020830152604082019050919050565b6000612dd0602f83613385565b91507f4552433732314d657461646174613a2055524920717565727920666f72206e6f60008301527f6e6578697374656e7420746f6b656e00000000000000000000000000000000006020830152604082019050919050565b6000612e36602183613385565b91507f4552433732313a20617070726f76616c20746f2063757272656e74206f776e6560008301527f72000000000000000000000000000000000000000000000000000000000000006020830152604082019050919050565b6000612e9c603183613385565b91507f4552433732313a207472616e736665722063616c6c6572206973206e6f74206f60008301527f776e6572206e6f7220617070726f7665640000000000000000000000000000006020830152604082019050919050565b6000612f02602c83613385565b91507f455243373231456e756d657261626c653a20676c6f62616c20696e646578206f60008301527f7574206f6620626f756e647300000000000000000000000000000000000000006020830152604082019050919050565b612f64816134c6565b82525050565b6000612f7682856127ca565b9150612f8282846127ca565b91508190509392505050565b6000602082019050612fa3600083018461273a565b92915050565b6000608082019050612fbe600083018761273a565b612fcb602083018661273a565b612fd86040830185612f5b565b8181036060830152612fea8184612758565b905095945050505050565b600060208201905061300a6000830184612749565b92915050565b6000602082019050818103600083015261302a8184612791565b905092915050565b6000602082019050818103600083015261304b816127fb565b9050919050565b6000602082019050818103600083015261306b81612861565b9050919050565b6000602082019050818103600083015261308b816128c7565b9050919050565b600060208201905081810360008301526130ab8161292d565b9050919050565b600060208201905081810360008301526130cb8161296d565b9050919050565b600060208201905081810360008301526130eb816129d3565b9050919050565b6000602082019050818103600083015261310b81612a13565b9050919050565b6000602082019050818103600083015261312b81612a79565b9050919050565b6000602082019050818103600083015261314b81612adf565b9050919050565b6000602082019050818103600083015261316b81612b45565b9050919050565b6000602082019050818103600083015261318b81612bab565b9050919050565b600060208201905081810360008301526131ab81612c11565b9050919050565b600060208201905081810360008301526131cb81612c51565b9050919050565b600060208201905081810360008301526131eb81612cb7565b9050919050565b6000602082019050818103600083015261320b81612d1d565b9050919050565b6000602082019050818103600083015261322b81612d5d565b9050919050565b6000602082019050818103600083015261324b81612dc3565b9050919050565b6000602082019050818103600083015261326b81612e29565b9050919050565b6000602082019050818103600083015261328b81612e8f565b9050919050565b600060208201905081810360008301526132ab81612ef5565b9050919050565b60006020820190506132c76000830184612f5b565b92915050565b6000604051905081810181811067ffffffffffffffff821117156132f4576132f361364b565b5b8060405250919050565b600067ffffffffffffffff8211156133195761331861364b565b5b601f19601f8301169050602081019050919050565b600067ffffffffffffffff8211156133495761334861364b565b5b601f19601f8301169050602081019050919050565b600081519050919050565b600081519050919050565b600082825260208201905092915050565b600082825260208201905092915050565b600081905092915050565b60006133ac826134c6565b91506133b7836134c6565b9250827fffffffffffffffffffffffffffffffffffffffffffffffffffffffffffffffff038211156133ec576133eb6135be565b5b828201905092915050565b6000613402826134c6565b915061340d836134c6565b92508261341d5761341c6135ed565b5b828204905092915050565b6000613433826134c6565b915061343e836134c6565b925082821015613451576134506135be565b5b828203905092915050565b6000613467826134a6565b9050919050565b60008115159050919050565b60007fffffffff0000000000000000000000000000000000000000000000000000000082169050919050565b600073ffffffffffffffffffffffffffffffffffffffff82169050919050565b6000819050919050565b82818337600083830152505050565b60005b838110156134fd5780820151818401526020810190506134e2565b8381111561350c576000848401525b50505050565b6000600282049050600182168061352a57607f821691505b6020821081141561353e5761353d61361c565b5b50919050565b600061354f826134c6565b91507fffffffffffffffffffffffffffffffffffffffffffffffffffffffffffffffff821415613582576135816135be565b5b600182019050919050565b6000613598826134c6565b91506135a3836134c6565b9250826135b3576135b26135ed565b5b828206905092915050565b7f4e487b7100000000000000000000000000000000000000000000000000000000600052601160045260246000fd5b7f4e487b7100000000000000000000000000000000000000000000000000000000600052601260045260246000fd5b7f4e487b7100000000000000000000000000000000000000000000000000000000600052602260045260246000fd5b7f4e487b7100000000000000000000000000000000000000000000000000000000600052604160045260246000fd5b6000601f19601f8301169050919050565b6136948161345c565b811461369f57600080fd5b50565b6136ab8161346e565b81146136b657600080fd5b50565b6136c28161347a565b81146136cd57600080fd5b50565b6136d9816134c6565b81146136e457600080fd5b5056fea2646970667358221220092f301b8cdf3d436d911a01e22065ddb421ff4d803c0e052a1bc832a4bbd5a064736f6c63430008000033",
  "immutableReferences": {},
  "source": "// SPDX-License-Identifier: MIT\r\npragma solidity 0.8.0;\r\n/// @title NFT MEMORY GAME\r\n/// @notice NFT Memery Game smart contract\r\n\r\n/// @notice inhert NFT (ERC721) contracts from openzeppelin.\r\nimport \"@openzeppelin/contracts/token/ERC721/ERC721.sol\";\r\n/**\r\n * @notice Optional enumeration implementation for ERC-721 non-fungible token standard.\r\n */\r\nimport \"@openzeppelin/contracts/token/ERC721/extensions/ERC721Enumerable.sol\";\r\n/**\r\n * @notice ERC721 token with storage based token URI management.\r\n */\r\nimport \"@openzeppelin/contracts/token/ERC721/extensions/ERC721URIStorage.sol\";\r\n///@notice  Wrappers over Solidity's arithmetic operations.\r\nimport \"@openzeppelin/contracts/utils/math/SafeMath.sol\";\r\n\r\n///@notice \r\nimport \"@openzeppelin/contracts/access/Ownable.sol\";\r\n\r\ncontract MemoryToken is ERC721, ERC721Enumerable, ERC721URIStorage , Ownable{\r\n  \r\n  event Minted(uint256 tokenId);\r\n  using SafeMath for uint256;\r\n\r\n  /**\r\n\t\t@notice Initializes the contract by setting a name and a symbol to the token collection.\r\n\t\t*/\r\n  constructor() ERC721(\"Memory Token\", \"MEMORY\") {}\r\n\r\n  /**\r\n\t\t@notice Hook that is called before any token transfer. This includes minting and burning.\r\n\t\t@dev calling condition When from and to are both non-zero, from's tokenId will be transferred to to\r\n\r\n\t\t@param from address token from\r\n\t\t@param to address to tranfer token to\r\n\t\t@param tokenId the  token ID\r\n\t\t*/\r\n  function _beforeTokenTransfer(\r\n    address from,\r\n    address to,\r\n    uint256 tokenId\r\n  ) internal override(ERC721, ERC721Enumerable) {\r\n    super._beforeTokenTransfer(from, to, tokenId);\r\n  }\r\n\r\n        /*\r\n\t\t@notice Internal function to burn a specific token. Reverts if the token does not exist.\r\n\t\t@param tokenId the token ID\r\n\t\t*/\r\n  function _burn(uint256 tokenId) internal override(ERC721, ERC721URIStorage) {\r\n    super._burn(tokenId);\r\n  }\r\n\r\n  /**@dev Returns the URI for a given token ID. May return an empty string.\r\n   If the tokens URI is non-empty and a base URI was set (via _setBaseURI), it will be added to the token IDs URI as a prefix.\r\n   Reverts if the token ID does not exist.\r\n   @param tokenId the token ID\r\n    */\r\n  function tokenURI(uint256 tokenId)\r\n    public\r\n    view\r\n    override(ERC721, ERC721URIStorage)\r\n    returns (string memory)\r\n  {\r\n    return super.tokenURI(tokenId);\r\n  }\r\n\r\n  ///@notice Returns true if account supports the IERC165 interface,\r\n  function supportsInterface(bytes4 interfaceId)\r\n    public\r\n    view\r\n    override(ERC721, ERC721Enumerable)\r\n    returns (bool)\r\n  {\r\n    return super.supportsInterface(interfaceId);\r\n  }\r\n\r\n  /**\r\n   /// @notice This is a minting function\r\n   /**  @dev the function takes player addrress and nft uri and \r\n\tincremnt number of nft the player gained and assign token uri to \r\n\tplayer address and finally returns boolean value(True) if minting was sucessfull\r\n\t*/\r\n  ///@notice totalSupply Returns the total amount of tokens stored by the contract.\r\n  /// @param _to player address\r\n  ///@param _tokenURI nft uri\r\n\r\n  function mint(address _to, string memory _tokenURI) public onlyOwner returns (bool) {\r\n    uint256 _tokenId = totalSupply().add(1);\r\n    _mint(_to, _tokenId);\r\n    _setTokenURI(_tokenId, _tokenURI);\r\n    emit Minted(_tokenId);\r\n    return true;\r\n  }\r\n}\r\n",
  "sourcePath": "/mnt/c/Users/LENOVO/blockchain-developer-bootcamp-final-project/src/contracts/MemoryToken.sol",
  "compiler": {
    "name": "solc",
    "version": "0.8.0+commit.c7dfd78e.Emscripten.clang"
  },
  "schemaVersion": "3.4.1",
  "updatedAt": "2021-11-30T02:33:59.419Z",
  "networkType": "ethereum",
  "devdoc": {
    "kind": "dev",
    "methods": {
      "approve(address,uint256)": {
        "details": "See {IERC721-approve}."
      },
      "balanceOf(address)": {
        "details": "See {IERC721-balanceOf}."
      },
      "getApproved(uint256)": {
        "details": "See {IERC721-getApproved}."
      },
      "isApprovedForAll(address,address)": {
        "details": "See {IERC721-isApprovedForAll}."
      },
      "mint(address,string)": {
        "params": {
          "_to": "player address",
          "_tokenURI": "nft uri"
        }
      },
      "name()": {
        "details": "See {IERC721Metadata-name}."
      },
      "owner()": {
        "details": "Returns the address of the current owner."
      },
      "ownerOf(uint256)": {
        "details": "See {IERC721-ownerOf}."
      },
      "renounceOwnership()": {
        "details": "Leaves the contract without owner. It will not be possible to call `onlyOwner` functions anymore. Can only be called by the current owner. NOTE: Renouncing ownership will leave the contract without an owner, thereby removing any functionality that is only available to the owner."
      },
      "safeTransferFrom(address,address,uint256)": {
        "details": "See {IERC721-safeTransferFrom}."
      },
      "safeTransferFrom(address,address,uint256,bytes)": {
        "details": "See {IERC721-safeTransferFrom}."
      },
      "setApprovalForAll(address,bool)": {
        "details": "See {IERC721-setApprovalForAll}."
      },
      "symbol()": {
        "details": "See {IERC721Metadata-symbol}."
      },
      "tokenByIndex(uint256)": {
        "details": "See {IERC721Enumerable-tokenByIndex}."
      },
      "tokenOfOwnerByIndex(address,uint256)": {
        "details": "See {IERC721Enumerable-tokenOfOwnerByIndex}."
      },
      "tokenURI(uint256)": {
        "details": "Returns the URI for a given token ID. May return an empty string. If the tokens URI is non-empty and a base URI was set (via _setBaseURI), it will be added to the token IDs URI as a prefix. Reverts if the token ID does not exist.",
        "params": {
          "tokenId": "the token ID"
        }
      },
      "totalSupply()": {
        "details": "See {IERC721Enumerable-totalSupply}."
      },
      "transferFrom(address,address,uint256)": {
        "details": "See {IERC721-transferFrom}."
      },
      "transferOwnership(address)": {
        "details": "Transfers ownership of the contract to a new account (`newOwner`). Can only be called by the current owner."
      }
    },
    "version": 1
  },
  "userdoc": {
    "kind": "user",
    "methods": {
      "constructor": {
        "notice": "Initializes the contract by setting a name and a symbol to the token collection."
      },
      "mint(address,string)": {
        "notice": "totalSupply Returns the total amount of tokens stored by the contract."
      },
      "supportsInterface(bytes4)": {
        "notice": "Returns true if account supports the IERC165 interface,"
      }
    },
    "version": 1
  }
}